:100000000C9461070C9492070C9492070C9492073D
:100010000C9492070C9492070C9492070C949207FC
:100020000C9492070C9492070C9492070C949207EC
:100030000C9492070C9492070C9492070C949207DC
:100040000C9492070C9492070C9492070C949207CC
:100050000C9492070C9492070C9492070C94E12A4A
:100060000C9492070C94B5140C94DD130C94920725
:100070000C9492070C9492070C9492070C9492079C
:100080000C9492070C9492070C9492070C9492078C
:100090000C9482140C949E130C9492070C94920767
:1000A0000C9492070C9492070C9492070C9492076C
:1000B0000C9492070C9492070C9492070C9492075C
:1000C0000C9492070C9492070C9492070C944F1482
:1000D0000C945F130C9492070C941C140C94201332
:1000E0000C949207EF15F215E515E9152916F6158A
:1000F000FA150016041608160E16121616162916EC
:100100001C1620162416084AD73B3BCE016E84BC31
:10011000BFFDC12F3D6C74319ABD56833DDA3D0061
:10012000C77F11BED9E4BB4C3E916BAAAABE0000AA
:1001300000803F05A84CCDB2D44EB93836A9020C88
:1001400050B9918688083CA6AAAA2ABE0000008061
:100150003F000C94AF3A0C941B0A0C948C110C9435
:10016000861D0C9469100C94950B0C94FA150C9444
:10017000D3110C940E160C9494070C9412160C9434
:10018000C90E0C941C160C9420160C9497110C9408
:10019000A7070C94B7110C946D290C9404160C94B9
:1001A000E9150C9416160C9408160C944A110C942C
:1001B000D1200C9486100C94E5150C94F6150C9433
:1001C000280F0C947A100C9429160C94FD110C94A1
:1001D00099100C946D1F0C9492100C944A120C946C
:1001E00024160C946A100C9400160C94EF150C94C1
:1001F000F21511007F96290001007F9628003A0130
:1002000055C0021010C10141C504002280403601D2
:1002100068B00100B102B011B40102B60302023BA2
:10022000B701C63A0155F704A9512C82C0020D0D41
:10023000C1024300C20100C50400480048B40100E7
:10024000B60302023BE00F0F211C0B0E0849983841
:10025000091103141000E10F0F2F2B0C0E06477627
:1002600037071104231E00B00100B3040200000090
:10027000B40100D003074218D103000710D20201D5
:1002800002D3020102D4020102C005123B00021196
:10029000C103101088C50103C60102C80C00323624
:1002A000450616377577540C00CC0100F6030101A2
:1002B00000CF03008130ED0464031281E803851050
:1002C00078CB05392C003402F70120EA020000B097
:1002D0000100B102001BB40100C00121C10111C520
:1002E000023F3CC701B5360148F20100260101E09A
:1002F0000F0F26240B0E0954A8460C17090F0700F0
:10030000E10F00191B0410072A473903060630388D
:100310000F360100B80101C0010EB00100C1041088
:10032000100202C006003500000102C50104D2021D
:100330000104CA0100EA0180B903FF83577F967F59
:1003400096B60125C0065050013C1E08B407024075
:10035000002A2A0D787F01F20B16160308080808F8
:1003600010041616FD03110235B2050C0C003333D0
:10037000B70135BB012BC00104C20201FFC301114B
:10038000C40120C6010FD002A4A1E00ED000050ECA
:10039000150D3743470915121619E10ED000050D4A
:1003A0000C062D44400E1C1816193A01557F0AB050
:1003B0000103E2013FC00122E20100B00100C001DF
:1003C0000AB0010000000000000000000000000072
:1003D00000000000FFFF0F00000400620800080892
:1003E0000003000C01030B5A020306090303171054
:1003F0000403002305030017060309630703090C20
:1004000008030C100903322210001600110001012C
:100410001200000013000100000130030101370247
:100420000301000D800200610201B0C1FFFF320034
:10043000010000010200000103003010090001006A
:100440000C000000900000800F000000100200006F
:100450001102EF001202000013028F0100050000DC
:100460000105000002055F00010401000404000012
:10047000FFFF320007000001FFFF32000002000012
:100480000102000000000000000000000000000069
:1004900000000100A4000100FFFF0A006000002727
:1004A0000800080830001402310015373200040635
:1004B0003300160E34001122350000153600078572
:1004C000370007143800031439002000900015008D
:1004D0001000100411003702290046002A004600CF
:1004E000070000001200890113000011FFFF9600B1
:1004F0001200B901010000010200000203003010E7
:10050000090001000A0000000D0000000E0030008C
:10051000610001006A00000080000000810000000E
:1005200082005F009200000193000107FFFF50006E
:1005300007000001E500F078010000010200000260
:10054000030030100400000005000000080007024E
:10055000090000000A0000000C0000000D0000006F
:100560000F00000010000000110007001200000042
:100570001300000007000100FFFFC80010009016E4
:1005800011002702FFFF320012000D00FFFF3200B2
:100590001300001229000A002B000D00FFFF32009B
:1005A00020000000210000003000000031000404A1
:1005B0003200030035000504360008083700070440
:1005C00038000303390007073C0004053D00080814
:1005D00060000027610001006A0000008000000048
:1005E0008100000082000000830000008400000001
:1005F0008500000090001000920000000700330109
:10060000E500008000000100010000010200000779
:10061000030030100400000008000202090000007E
:100620000A0000000C0000000D0000000F00000098
:10063000100000001100070012000000130000006D
:10064000FFFF32001000B01711000700FFFF0A0083
:1006500012003A01FFFF0A001300001A29000C00E3
:10066000FFFF0A00300000003100050532000400E1
:100670003500060036000707370005013800020084
:10068000390007073C0004073D000708600000A789
:10069000610001006A00000021000000200000004D
:1006A0008000000081000000820000008300000044
:1006B00084000000850000009000100092000000FF
:1006C00093000300950010019700000098000000BF
:1006D00007007301FFFF3200FF000100F300080074
:1006E00000000100010000010200000703003010BB
:1006F00008000203090000001000000011000700BC
:100700001200000013000000FFFF32001000B014C0
:10071000FFFF0A0011000700FFFF0A0012008E0011
:100720001300000C29001500FFFF0A003000000034
:1007300031000701320000003500030236000204D8
:100740003700000038000702390000003C000302B7
:100750003D000304600000A7610001009000290033
:1007600007003301FFFF3200150030009A0010002F
:10077000110020001000283412000200130038106D
:10078000FFFF280012001200FFFF28001000203495
:1007900013004530FFFF4600300000003100020426
:1007A0003200070333000403340004003500010461
:1007B0003600070737000503380010063900100619
:1007C00001000001020000030300301008000808C7
:1007D0000A000800600000276100010090003E014F
:1007E0009200000193000001A0000030A30010005F
:1007F0000700010007002100070023000700330065
:100800000700330111001A001200213113006C009F
:100810001400494210000008FFFF0A0011001A01ED
:10082000FFFF0A0011001A03FFFF0A0011001A0758
:10083000FFFF0A0011001A0FFFFF0A0011003A0F14
:10084000FFFF1E000100280102000001030030101C
:1008500007001210080003030B0000110C00000039
:100860000F0001181500200050000101510003067F
:100870005200080453000000540005065500060409
:1008800056000303570003035800100059000010DE
:1008900007001200FFFF28000700130007001700E1
:1008A000000020002300260029002C002F00320029
:1008B00000010000030106010901000021002400DD
:1008C00027002A002D003000330001010000040140
:1008D00007010A010000090A02080B0C0D070603B4
:1008E0000401000000000000000000000000000003
:1008F00000000000000000000000000000000000F8
:1009000011100F00000000000000000000000000B7
:100910000000000000000000000000000000003E99
:100920005B4F5B3E3E6B4F6B3E1C3E7C3E1C183C5F
:100930007E3C181C577D571C1C5E7F5E1C00183CBB
:100940001800FFE7C3E7FF0018241800FFE7DBE704
:10095000FF30483A060E2629792926407F050507EB
:10096000407F05253F5A3CE73C5A7F3E1C1C080847
:100970001C1C3E7F14227F22145F5F005F5F06090C
:100980007F017F006689956A606060606094A2FF65
:10099000A29408047E040810207E201008082A1C57
:1009A00008081C2A08081E101010100C1E0C1E0C23
:1009B00030383E3830060E3E0E06000000000000C3
:1009C000005F00000007000700147F147F14242A32
:1009D0007F2A122313086462364956205000080704
:1009E0000300001C2241000041221C002A1C7F1C25
:1009F0002A08083E08080080703000080808080827
:100A0000000060600020100804023E5149453E008D
:100A1000427F400072494949462141494D331814EB
:100A2000127F1027454545393C4A4949314121113A
:100A300009073649494936464949291E000014002C
:100A4000000040340000000814224114141414144F
:100A5000004122140802015909063E415D594E7CAD
:100A60001211127C7F494949363E414141227F4162
:100A700041413E7F494949417F090909013E4141C0
:100A800051737F0808087F00417F41002040413FAB
:100A9000017F081422417F404040407F021C027FBA
:100AA0007F0408107F3E4141413E7F090909063E0F
:100AB0004151215E7F0919294626494949320301DE
:100AC0007F01033F4040403F1F2040201F3F4038F0
:100AD000403F631408146303047804036159494DCB
:100AE00043007F4141410204081020004141417F01
:100AF0000402010204404040404000030708002077
:100B0000545478407F284444383844444428384476
:100B100044287F385454541800087E090218A4A4AD
:100B20009C787F0804047800447D40002040403DCC
:100B3000007F1028440000417F40007C0478047846
:100B40007C080404783844444438FC1824241818D9
:100B5000242418FC7C080404084854545424040435
:100B60003F44243C4040207C1C2040201C3C403022
:100B7000403C44281028444C9090907C4464544C51
:100B800044000836410000007700000041360800AC
:100B900002010204023C2623263C1EA1A161123A56
:100BA0004040207A385454555921555579412254A2
:100BB000547842215554784020545579400C1E52A7
:100BC000721239555555593954545459395554544C
:100BD000580000457C410002457D420001457C40B3
:100BE0007D1211127DF0282528F07C5455450020F7
:100BF00054547C547C0A097F4932494949323A4469
:100C000044443A324A4848303A4141217A3A4240D3
:100C10002078009DA0A07D3D4242423D3D404040A5
:100C20003D3C24FF2424487E4943662B2FFC2F2B78
:100C3000FF0929F620C0887E090320545479410019
:100C400000447D413048484A32384040227A007A98
:100C50000A0A727D0D19317D2629292F2826292976
:100C6000292630484D402038080808080808080898
:100C7000382F10C8ACBA2F102834FA00007B0000BF
:100C800008142A142222142A14085500550055AAC3
:100C900055AA55AAFF55FF55FF000000FF00101090
:100CA00010FF00141414FF001010FF00FF1010F0CC
:100CB00010F0141414FC001414F700FF0000FF00DF
:100CC000FF1414F404FC141417101F10101F101F2D
:100CD0001414141F00101010F0000000001F10105A
:100CE00010101F10101010F010000000FF10101056
:100CF000101010101010FF10000000FF140000FF73
:100D000000FF00001F10170000FC04F4141417105B
:100D1000171414F404F40000FF00F714141414144E
:100D20001414F700F7141414171410101F101F14C4
:100D30001414F4141010F010F000001F101F000025
:100D4000001F14000000FC140000F010F01010FF51
:100D500010FF141414FF141010101F00000000F0F6
:100D600010FFFFFFFFFFF0F0F0F0F0FFFFFF0000CB
:100D7000000000FFFF0F0F0F0F0F3844443844FCF2
:100D80004A4A4A347E02020606027E027E02635509
:100D90004941633844443C04407E201E2006027EC4
:100DA000020299A5E7A5991C2A492A1C4C720172D6
:100DB0004C304A4D4D303048784830BC625A463D40
:100DC0003E494949007E0101017E2A2A2A2A2A44F5
:100DD000445F444440514A444040444A514000002A
:100DE000FF0103E080FF000008086B6B0836123635
:100DF0002436060F090F0600001818000000101016
:100E0000003040FF0101001F01011E00191D1712D3
:100E1000003C3C3C3C000000000001021020200887
:100E20000810204010204080020102010804020145
:100E300001020408102040808040201008040201B4
:100E4000800402018040201008040201080402010D
:100E50000102040810204080010204081020408094
:100E600000002200250028002B002E003100340055
:100E700002010000050108010B0105050505070534
:100E800008080808020202020A0A08080404040406
:100E90000101010101010101030303030303030332
:100EA000040707070C0C0C0C0C0C0C0C02020202C1
:100EB00006060606060606060B0B0B0B0B0B0B0BAA
:100EC000AF3A11241FBECFEFD1E2DEBFCDBF00E0AD
:100ED0000CBF12E0A0E0B2E0E2E4F4E800E00BBFF7
:100EE00002C007900D92AA3AB107D9F727E0AAEA03
:100EF000B2E001C01D92AE3FB207E1F717E0C1E6D4
:100F0000D7E000E006C021970109802FFE010E9472
:100F10001742C036D10780E00807A9F70E942B2BA3
:100F20000C944E3C0C940000EF92FF920F931F9391
:100F3000DC01ED91FC91048CF58DE02D780101E050
:100F400010E019951F910F91FF90EF900895EF9287
:100F5000FF920F931F93DC01ED91FC91048CF58DB2
:100F6000E02D7801890121E030E019951F910F9162
:100F7000FF90EF9008950895FC016370658B848164
:100F8000958126813781613039F0633029F091876E
:100F900080873387228708953187208793878287C8
:100FA00008958B988A982091020127782093020156
:100FB000A5982EB1277C2EB970910201292F3327D5
:100FC000F901E370FF27A5E0EE0FFF1FAA95E1F7F7
:100FD000E72BE09302017EB1F901EC70FF27EE0FE1
:100FE000FF1FEE0FFF1FE72BEEB974B3F901E0719D
:100FF000FF27EE0FFF1FE72BE4BB7EB1F901E07284
:10100000FF27F595E795F595E795E72BEEB97091F4
:101010000201207C3327E3E035952795EA95E1F737
:10102000272B209302018998899A20910201277821
:1010300020930201A5982EB1277C2EB97091020150
:101040009C0123703327F5E0220F331FFA95E1F757
:10105000272B209302017EB19C012C703327220F95
:10106000331F220F331F272B2EB974B39C0120711D
:101070003327220F331F272B24BB7EB19C01207204
:1010800033273595279535952795272B2EB97091C0
:1010900002019C01207C3327F3E035952795FA95D2
:1010A000E1F7272B209302018998899A8A9AFA01FD
:1010B000A091B9047FEF760F16160CF0C7C02191EE
:1010C00030910201377830930201A5983EB1377C08
:1010D0003EB960910201322F3370B0E23B9FA00114
:1010E0001124462B409302016EB1322F3C70B4E0C4
:1010F0003B9FA0011124462B4EB944B3322F3071CF
:10110000330F342B34BB6EB1322F3072432F50E08B
:101110005595479555954795462B4EB93091020107
:10112000207C269526952695232B209302018998CD
:10113000899A711102C0672FBDCFAA23E1F30196EE
:101140008A9820910201277820930201A5982EB158
:10115000277C2EB960910201292F3327A901437002
:101160005527B5E0440F551FBA95E1F7462B40933C
:1011700002016EB1A9014C705527440F551F440F51
:10118000551F462B4EB964B3A90140715527440F32
:10119000551F462B44BB6EB1A9014072552755958A
:1011A000479555954795462B4EB940910201207CB5
:1011B000332753E0359527955A95E1F7242B209353
:1011C00002018998899A20910201277820930201CF
:1011D000A5982EB1277C2EB9409102019C01237065
:1011E000332765E0220F331F6A95E1F7242B209304
:1011F00002014EB19C012C703327220F331F220FA6
:10120000331F242B2EB944B39C0120713327220FA6
:10121000331F242B24BB4EB19C01207233273595FC
:10122000279535952795242B2EB9409102019C01D5
:10123000207C3327B3E035952795BA95E1F7242B29
:10124000209302018998899A8A9A75CF8B9A08957A
:101250008B988A98E2E0F1E0208127782083A59896
:101260002EB1277C2EB9A081292F3327A9014370E5
:101270005527B5E0440F551FBA95E1F74A2B408337
:10128000AEB1A9014C705527440F551F440F551F8F
:101290004A2B4EB9A4B3A90140715527440F551FDD
:1012A0004A2B44BBAEB1A9014072552755954795CD
:1012B000559547954A2B4EB94081207C332753E002
:1012C000359527955A95E1F7242B20838998899A9B
:1012D000208127782083A5982EB1277C2EB94081C4
:1012E0009C0123703327A5E0220F331FAA95E1F755
:1012F000242B20834EB19C012C703327220F331FE7
:10130000220F331F242B2EB944B39C0120713327A5
:10131000220F331F242B24BB4EB19C012072332794
:101320003595279535952795242B2EB92081807CDE
:101330009927B3E095958795BA95E1F7822B80833D
:101340008998899A8A9A808187788083A5988EB1B6
:10135000877C8EB94081872F99279C012370332782
:1013600055E0220F331F5A95E1F7242B20834EB10D
:101370009C012C703327220F331F220F331F242B85
:101380002EB944B39C0120713327220F331F242B25
:1013900024BB4EB19C012072332735952795359596
:1013A0002795242B2EB92081807C9927A3E0959541
:1013B0008795AA95E1F7822B80838998899A808105
:1013C00087788083A5988EB1877C8EB92081CB01E8
:1013D00083709927B5E0880F991FBA95E1F7822BA2
:1013E00080832EB1CB018C709927880F991F880FAD
:1013F000991F822B8EB924B3CB0180719927880F56
:10140000991F822B84BB2EB1CB01807299279595B1
:10141000879595958795822B8EB98081607C7727FB
:10142000A3E075956795AA95E1F7682B6083899885
:10143000899A8B9A0895EF92FF920F931F93CF93FF
:10144000DF937C01E90177FD69C157FD67C1FC01AC
:1014500080859185681779070CF060C18285938536
:10146000481759070CF05AC18091B804882341F0FD
:10147000CE018F719927880F991FC17CC82BD92B5A
:101480008A019B01C7010E9423208091B90488230F
:1014900009F438C18B988A98F70182A593A5209109
:1014A0000201277820930201A5982EB1277C2EB93E
:1014B00060910201292F3327A9014370552775E058
:1014C000440F551F7A95E1F7462B409302016EB108
:1014D000A9014C705527440F551F440F551F462B2B
:1014E0004EB964B3A90140715527440F551F462BCF
:1014F00044BB6EB1A9014072552755954795559546
:101500004795462B4EB940910201207C3327B3E02A
:1015100035952795BA95E1F7242B209302018998F8
:10152000899A20910201277820930201A5982EB173
:10153000277C2EB9409102019C012370332715E0CE
:10154000220F331F1A95E1F7242B209302014EB18D
:101550009C012C703327220F331F220F331F242BA3
:101560002EB944B39C0120713327220F331F242B43
:1015700024BB4EB19C0120723327359527953595B4
:101580002795242B2EB920910201807C992773E0A6
:10159000959587957A95E1F7822B8093020189983A
:1015A000899A8A9A2C2F220F220F220F80910201F2
:1015B000877880930201A5988EB1877C8EB980913F
:1015C0000201809302013EB1CE018827987F892FC6
:1015D0009927AC014C705527440F551F440F551FD8
:1015E000432B4EB934B3AC0140715527440F551FFE
:1015F000432B44BB3EB1AC014072552755954795EE
:1016000055954795432B4EB930910201807C99271F
:1016100013E0959587951A95E1F7832B8093020146
:101620008998899A80910201877880930201A59810
:101630008EB1877C8EB980910201809302013EB108
:10164000C07ED77003E0D695C7950A95E1F7CE0125
:101650008C709927880F991F880F991F832B8EB93B
:1016600034B3CE0180719927880F991F832B84BBD7
:101670003EB1CE018072992795958795959587956E
:10168000832B8EB980910201C07CDD2773E0D59554
:10169000C7957A95E1F7C82BC09302018998899A7A
:1016A00080910201877880930201A5988EB1877C92
:1016B0008EB980910201809302019EB1822F8C70BD
:1016C000880F880F892B8EB994B3822F8071880F71
:1016D000892B84BB3EB1922F9072892F90E0959513
:1016E000879595958795832B8EB980910201207CF3
:1016F000269526952695282B209302018998899A6C
:101700008B9A0CC0BE01F70182A593A5DF91CF9102
:101710001F910F91FF90EF900C942809DF91CF91CA
:101720001F910F91FF90EF900895DF92EF92FF923B
:101730000F931F93CF93DF93CDB7DEB72A970FB6E2
:10174000F894DEBF0FBECDBF7C01862F8370D7011A
:1017500055968C935597462F417060FF05C016969D
:101760002D913C91179703C0F70124813581D70152
:1017700019963C932E931897442329F014962D9193
:101780003C91159703C0F70126813781D7011B963D
:101790003C932E931A97823041F0833041F0813090
:1017A00011F088E405C088E203C088E901C088EF31
:1017B0008A87F701248D358D30FF03C08A858058D4
:1017C0008A8731FF04C09A8580E489278A8733FF9E
:1017D00004C09A8588E089278A87D7015E968D9113
:1017E0009C915F9720FFD5C01091B9048431B8E671
:1017F0009B07F9F49A85892F881F8827881F82956F
:10180000880F880F807C96FD02C020E001C020E296
:1018100098729A871F828260822B88878BE38987E0
:10182000AE01495F5F4F63E086EB90E00E94D10715
:1018300089C08336E9E19E0741F08138F4E99F07CA
:1018400021F0813125E1920709F52A8527FF02C0A1
:1018500021602A872A8526FF02C022602A878336D4
:1018600039E1930719F48A858F730EC0813844E9F2
:10187000940719F48A858F7207C08131954109F068
:1018800061C08A858F7E806C8A875CC0112309F4D1
:1018900059C062E070E0F70177A366A326E030E06C
:1018A00031A720A7E2E2F0E0D7019B96FC93EE93EC
:1018B0009A979D967C936E939C9764E070E09F96B8
:1018C0007C936E939E97D1963C932E93D09728E06D
:1018D00030E0D3963C932E93D2978536910521F52F
:1018E0008A85982F916084FD02C09A8703C083ED9A
:1018F00089278A87442351F082E890E0F70197A373
:1019000086A380E890E091A780A732C280E890E0AB
:10191000D70197969C938E93969782E890E099963C
:101920009C938E93989724C28235924501F58A85BF
:10193000982F926084FD02C09A8719C084ED892790
:101940008A8715C02AE230E0F70137A326A38BE28D
:1019500090E091A780A74CE250E053A742A735A79B
:1019600024A737A726A791AB80AB93AB82AB11110D
:10197000FFC186E390E0AE01465F5F4F61E00E94E9
:10198000D1078A8590E0D70193969C938E93929786
:10199000E6C02A858339B7E79B0709F448C050F4AD
:1019A0008435F1E09F0781F0803234E5930709F038
:1019B00081C03DC0863243E99407C9F18930A5EB67
:1019C0009A0709F077C033C087E390E0F70195A745
:1019D00084A786E390E097A786A789E390E091AB80
:1019E00080AB88E390E093AB82AB80E290E097A37A
:1019F00086A381E290E091A780A782E290E093A77E
:101A000082A7822F022E000C990B8827990F881F1E
:101A10009927982F8827990F26FD03C060E070E072
:101A200002C060E071E08862682B792B82C040E0E0
:101A300052E0D70197965C934E93969741E052E01F
:101A400099965C934E93989742E052E09B965C93F4
:101A50004E939A9740E152E09D965C934E939C97EB
:101A600041E152E09F965C934E939E9742E152E093
:101A7000D1965C934E93D09743E152E0D3965C931A
:101A80004E93D29727FD03C020E030E002C020E053
:101A900030E88632B3E99B0731F08032944519F083
:101AA00060E07AE602C060E075E3622B732B80E0B1
:101AB00094E035C080E290E0D70197969C938E9396
:101AC000969781E290E099969C938E93989782E204
:101AD00090E09B969C938E939A9780E590E09D96DC
:101AE0009C938E939C9781E590E09F969C938E9318
:101AF0009E9782E590E0D1969C938E93D09783E554
:101B000090E0D3969C938E93D29727FD03C060E01C
:101B100070E002C060E070E8776280E690E00E94CA
:101B200028098A8586FD03C060E070E002C060E09D
:101B300071E081E090E00E9428098A8585FD03C05C
:101B400060E070E002C068E070E083FD7061606397
:101B5000F70173A362A383E090E00E942809D701F4
:101B600055968C91559780FF36C05C968D919C91CF
:101B70005D9792FD30C096968D919C91979798961F
:101B80002D913C91999797963C932E939697999681
:101B90009C938E9398979C968D919C919D97D096AF
:101BA0002D913C91D1979D963C932E939C97D196E5
:101BB0009C938E93D0979E968D919C919F97D29651
:101BC0002D913C91D3979F963C932E939E97D396BD
:101BD0009C938E93D297F7010285138501501109CA
:101BE000208531852150310940E050E060E070E00F
:101BF000C7010E942320D70116966D917C911797FB
:101C00005E968D919C915F978732B3E99B0741F473
:101C1000F70125892250223018F400E210E002C0BA
:101C200000E010E08732F3E99F0729F022273327ED
:101C3000201B310B04C020E230E0201B310BD70108
:101C40005C964C9140FF45C01982D02E0A837B835D
:101C50006C833D832E831091B904111103C083E37B
:101C600090E002C08EE090E0AE014F5F5F4F66E013
:101C70000E94D1071982DA82111103C087E390E034
:101C800002C084E190E0AE014F5F5F4F62E00E94CE
:101C9000D107112389F01982F701868D978D87343A
:101CA000934819F081E090E002C088E190E0AE0135
:101CB0004F5F5F4F61E00AC0D7015C968C9180FF57
:101CC0005AC040E050E060E083E190E00E94D1071C
:101CD00052C08339B7E79B0779F160F48032F4E5AD
:101CE0009F0751F1833827E7920781F084359140AF
:101CF00089F510C0863243E99407F1F08930A5EBED
:101D00009A07D1F08532924929F504C0F70160A104
:101D100071A124C0600F711F6150710981E390E0CF
:101D20000E942809B80182E390E00E94280960E03F
:101D300070E083E390E019C0D70190966D917C919B
:101D40009197626081E094E00E942809B80184E0E4
:101D500094E00BC0F70160A171A1626081E690E0A0
:101D60000E942809B8018AE690E00E94280903C071
:101D700086E190E000CE2A960FB6F894DEBF0FBE43
:101D8000CDBFDF91CF911F910F91FF90EF90DF902A
:101D900008956F927F928F929F92AF92BF92CF924F
:101DA000DF92EF92FF920F931F93CF93DF93EC019B
:101DB0004B015A0169013801E881F9810680F781F8
:101DC000E02D1995E881F9810684F785E02D8701DA
:101DD0009601A501B401CE011995A501460D571D27
:101DE00041505109E881F9810684F785E02D96017B
:101DF000B401CE011995E881F9810484F585E02DBF
:101E00009301A501B401CE011995C80CD91CB601E6
:101E100061507109E881F9810484F585E02D930111
:101E2000A501CE011995E881F9810288F389E02D99
:101E3000CE01DF91CF911F910F91FF90EF90DF9036
:101E4000CF90BF90AF909F908F907F906F9019949C
:101E50008F929F92AF92BF92CF92DF92EF92FF92BA
:101E60000F931F93CF93DF934C016B015A01E9014C
:101E7000DC01ED91FC916217730781F404171507DB
:101E800024F48B2D5801042F182F0A191B099801CF
:101E90002F5F3F4F008CF18DE02D12C0401751078E
:101EA00009F52617370724F48D2D6901C62FD82F81
:101EB0009E012C193D092F5F3F4F028CF38DE02DC1
:101EC0008701A501B601C4011995DF91CF911F913A
:101ED0000F91FF90EF90DF90CF90BF90AF909F90C9
:101EE0008F9008950680F781E02D1995D401ED912A
:101EF000FC910088F189E02D9E01A501B601C40185
:101F00001995D401ED91FC910288F389E02DC4016B
:101F1000DF91CF911F910F91FF90EF90DF90CF90C5
:101F2000BF90AF909F908F901994EF92FF920F9374
:101F30001F93DC011A960D911C911B9718962D91F9
:101F40003C911997ED91FC91048CF58DE02D7B016E
:101F500040E050E060E070E019951F910F91FF9014
:101F6000EF9008954F925F926F927F928F929F921F
:101F7000AF92BF92CF92DF92EF92FF920F931F9397
:101F8000CF93DF936C012B015A0139014801DC0129
:101F9000ED91FC910680F781E02D1995E201640C2A
:101FA000751CD601ED91FC91C615D7055CF404842F
:101FB000F585E02D87019401A501BE01C6011995A3
:101FC0002196EFCF0288F389E02DC601DF91CF91F2
:101FD0001F910F91FF90EF90DF90CF90BF90AF9047
:101FE0009F908F907F906F905F904F9019948F92F9
:101FF0009F92AF92BF92CF92DF92EF92FF920F9398
:102000001F93CF93DF93EC015B014A016901E881E3
:10201000F9810680F781E02D199595012C0D3D1D64
:1020200021503109E881F9810088F189E02D78019A
:102030008401A401B501CE011995E881F9810288D6
:10204000F389E02DCE01DF91CF911F910F91FF9089
:10205000EF90DF90CF90BF90AF909F908F901994AA
:102060008F929F92AF92BF92CF92DF92EF92FF92A8
:102070000F931F93CF93DF93EC015B014A0169013A
:102080007801E881F9810680F781E02D1995C80C67
:10209000D91C860101501109E881F9810088F18974
:1020A000E02D9501A401B501CE011995E881F981D2
:1020B0000288F389E02DCE01DF91CF911F910F911E
:1020C000FF90EF90DF90CF90BF90AF909F908F9058
:1020D00019940895EF92FF920F931F93DC01ED91F5
:1020E000FC91048CF58DE02D19951F910F91FF90B7
:1020F000EF9008950F931F93DC01ED91FC91028CFA
:10210000F38DE02D19951F910F9108950F931F9353
:10211000DC01ED91FC91008CF18DE02D19951F9162
:102120000F910895DC01ED91FC910480F581E02D83
:1021300019942F923F924F925F926F927F928F925B
:102140009F92AF92BF92CF92DF92EF92FF920F9346
:102150001F93CF93DF9300D000D0CDB7DEB72C0113
:102160007E836D836A015901C801FC82EB824801BC
:10217000841A950A97FE03C09194819491083501C1
:102180002D813E81621A730A77FE03C071946194B7
:102190007108681479045CF43A2D2B2D5C01832FAF
:1021A000922F3D812E81DE82CD82C32ED22EAD8133
:1021B000BE81AA16BB065CF43C2D2D2D6C01832F2D
:1021C000922F3D812E81BE82AD82A32EB22E85013B
:1021D0002D813E81021B130B1C012C183D0837FE7C
:1021E00003C0319421943108780117FF03C03FEFF9
:1021F000E31AF30AF594E794C816D9062CF08FEF8A
:102200009FEF9A83898304C0A1E0B0E0BA83A983D9
:102210002D813E81A216B30624F1D201ED91FC91ED
:102220000084F185E02D2B813C816814790424F42D
:102230004D815E81B60103C0A6016D817E81C20120
:102240001995E218F308F7FE06C029813A81C20EFB
:10225000D31EE00EF11E8D819E8101969E838D839B
:10226000D7CF26960FB6F894DEBF0FBECDBFDF9155
:10227000CF911F910F91FF90EF90DF90CF90BF9083
:10228000AF909F908F907F906F905F904F903F9016
:102290002F9008950F931F93CF93DF93FC01A68592
:1022A000B7858D01005C1F4FE801888199810196F7
:1022B0008F739927AD014E5B5F4FEA012881398109
:1022C00028173907D1F3E80128813981A20FB31FFC
:1022D0006C93A685B785A05CBF4F11969C938E9397
:1022E000A689B7892C9181E090E0078C02C0880F05
:1022F000991F0A94E2F7822B8C9381E081A30488D2
:10230000F589E02D80818064808381E090E0DF9119
:10231000CF911F910F910895FC0181A1882329F08D
:10232000A489B5898C9186FFFBCF11A20895FC0189
:10233000A485B585FD01E05CFF4F20813181329697
:10234000808191812817390779F080819181A80FC8
:10235000B91F8C91208131812F5F3F4F2F7333271D
:102360003183208390E008958FEF9FEF0895DC0183
:102370001C96ED91FC911D97DF01A05CBF4F2D9144
:102380003C91119712968D919C91119728173907BE
:1023900039F08D919C91E80FF91F808190E00895AC
:1023A0008FEF9FEF0895FC0124853585F901E05CEE
:1023B000FF4F80819181329620813181821B930B66
:1023C0008F7399270895FB01E05CFF4F20813181D5
:1023D000DB01AE5BBF4F4D915C912F5F3F4F2F7381
:1023E00033274217530741F040815181DB01A40F8D
:1023F000B51F8C93318320830895CF92DF92EF92A3
:10240000FF920F931F93CF93DF936C01EB017B013E
:10241000E40EF51E00E010E0CE15DF0561F06991D5
:10242000D601ED91FC910190F081E02DC601199546
:10243000080F191FF1CFC801DF91CF911F910F91A4
:10244000FF90EF90DF90CF9008953FB7F894809180
:10245000B1029091B202A091B302B091B40226B53C
:10246000A89B05C02F3F19F00196A11DB11D3FBFCC
:10247000BA2FA92F982F8827820F911DA11DB11D5A
:10248000BC01CD0142E0660F771F881F991F4A9556
:10249000D1F70895AF92BF92CF92EF92FF920F9330
:1024A0001F93CF93DF93EC01262F888D998D009792
:1024B00009F040C06A3059F41D861C862C898E852F
:1024C0009F8538E0239F800D911D112441C06D3000
:1024D00009F4AAC08E898823C1F03C898C859D852A
:1024E00046E0349F800D911D112448855985481779
:1024F00059075CF41D861C868E859F8548E0349FB5
:10250000800D911D11249F878E87EA88FB8808899A
:1025100019894E855F856C857D85CC88CE010E94AA
:10252000021A2C898C859D8536E0239F800D911D94
:10253000112442C06A3079F41D861C862C89FC0166
:102540003696E4918E859F852E9F800D911D1124D6
:102550009F878E8769C06D3009F466C0FC01349690
:102560003491631708F460C03196E491E61708F4DB
:102570005BC0FC01329665917491422F50E0431B81
:10258000510937E0349F5001359FB00C1124A60E3D
:10259000B71EF501329634913196E491332311F050
:1025A000E1110DC0F5013496E4912C898C859D854F
:1025B000E29F800D911D11249D878C8735C0F50108
:1025C000359644915E89552311F16C89E32FF0E033
:1025D000E40FF11D47FDFA956E9FD0016F9FB00D7E
:1025E00011244C855D854A0F5B1FE885F985E4174A
:1025F000F5076CF41D861C86FC013696E4918E85E9
:102600009F856E9F800D911D11249F878E87EA887C
:10261000FB88088919894E855F856C857D85CC8806
:10262000CE010E94021ABECF81E090E0DF91CF91EF
:102630001F910F91FF90EF90CF90BF90AF900895B2
:102640001F920F920FB60F9211240BB60F922F9379
:102650003F938F939F93EF93FF9320914405309185
:10266000450580914605909147052817390731F4B3
:10267000809131018F7D8093310114C0E091460536
:10268000F0914705EC5FFA4F2081809146059091CB
:10269000470501968F7399279093470580934605C8
:1026A00020933601FF91EF919F918F913F912F9150
:1026B0000F900BBE0F900FBE0F901F9018951F929A
:1026C0000F920FB60F9211240BB60F922F933F93D8
:1026D0008F939F93EF93FF932091CC053091CD057D
:1026E0008091CE059091CF052817390731F480915C
:1026F000D1008F7D8093D10014C0E091CE05F09180
:10270000CF05E457FA4F20818091CE059091CF05F7
:1027100001968F7399279093CF058093CE052093D0
:10272000D600FF91EF919F918F913F912F910F9044
:102730000BBE0F900FBE0F901F9018951F920F9217
:102740000FB60F9211240BB60F922F933F938F93D6
:102750009F93EF93FF9320915406309155068091FB
:102760005606909157062817390731F48091C90011
:102770008F7D8093C90014C0E0915606F0915706F2
:10278000EC5EF94F20818091560690915706019694
:102790008F73992790935706809356062093CE0007
:1027A000FF91EF919F918F913F912F910F900BBED1
:1027B0000F900FBE0F901F9018951F920F920FB69B
:1027C0000F9211240BB60F922F933F938F939F93E9
:1027D000EF93FF932091DC063091DD068091DE06B9
:1027E0009091DF062817390731F48091C1008F7D61
:1027F0008093C10014C0E091DE06F091DF06E4563C
:10280000F94F20818091DE069091DF0601968F734B
:1028100099279093DF068093DE062093C600FF91F0
:10282000EF919F918F913F912F910F900BBE0F9041
:102830000FBE0F901F9018951F920F920FB60F9218
:1028400011240BB60F922F933F934F935F936F9387
:102850007F938F939F93AF93BF93EF93FF93809159
:10286000300182FD07C08091360168E475E00E9466
:10287000E31102C080913601FF91EF91BF91AF91BA
:102880009F918F917F916F915F914F913F912F9188
:102890000F900BBE0F900FBE0F901F9018951F92B8
:1028A0000F920FB60F9211240BB60F922F933F93F6
:1028B0004F935F936F937F938F939F93AF93BF9348
:1028C000EF93FF938091D00082FD07C08091D600E6
:1028D00060ED75E00E94E31102C08091D600FF9187
:1028E000EF91BF91AF919F918F917F916F915F9188
:1028F0004F913F912F910F900BBE0F900FBE0F90F5
:102900001F9018951F920F920FB60F9211240BB6BD
:102910000F922F933F934F935F936F937F938F9378
:102920009F93AF93BF93EF93FF938091C80082FD75
:1029300007C08091CE0068E576E00E94E31102C0F6
:102940008091CE00FF91EF91BF91AF919F918F91B8
:102950007F916F915F914F913F912F910F900BBE9F
:102960000F900FBE0F901F9018951F920F920FB6E9
:102970000F9211240BB60F922F933F934F935F93B7
:102980006F937F938F939F93AF93BF93EF93FF9337
:102990008091C00082FD07C08091C60060EE76E0A5
:1029A0000E94E31102C08091C600FF91EF91BF9198
:1029B000AF919F918F917F916F915F914F913F91D7
:1029C0002F910F900BBE0F900FBE0F901F90189578
:1029D0006115710579F0FB0101900020E9F731974D
:1029E000AF01461B570BDC01ED91FC910280F38196
:1029F000E02D199480E090E008958F929F92AF921D
:102A0000BF92CF92DF92EF92FF920F931F93CF93DB
:102A1000DF93CDB7DEB7A1970FB6F894DEBF0FBE38
:102A2000CDBF6C01142FE52FCB01022F19A222304C
:102A300008F40AE07E0121E2E20EF11C802E912CC6
:102A4000A12CB12C612F7E2FA50194010E94983CEE
:102A5000029F1019112481E0E81AF1081A3014F4C9
:102A6000105D01C0195CF7011083122FE32FCA011A
:102A7000232B242B252B31F7B701C6010E94E81424
:102A8000A1960FB6F894DEBF0FBECDBFDF91CF91F8
:102A90001F910F91FF90EF90DF90CF90BF90AF907C
:102AA0009F908F900895FC0180819181009711F093
:102AB0000C94273C60E070E0CB010895EF92FF9208
:102AC0000F931F93CF93DF93EC017B018A018881E1
:102AD0009981009729F02A813B8124173507F8F462
:102AE000B8016F5F7F4F0E94EA3D009759F09983CC
:102AF00088831B830A832C813D81232B81F4FC0175
:102B000010820DC088819981009711F00E94613D6B
:102B1000198218821D821C821B821A8207C01D83A3
:102B20000C83B701888199810E94E33ECE01DF9139
:102B3000CF911F910F91FF90EF900895FC0180813C
:102B400091810C94613DFC011182108213821282EA
:102B50001582148216826115710551F0FB010190F6
:102B60000020E9F73197AF01461B570B0C945E1517
:102B70000895863308F0865390917B00282F2870A3
:102B8000977F922B90937B008770806480937C006A
:102B900080917A00806480937A0080917A0086FD2B
:102BA000FCCF809178002091790090E0922B0895DD
:102BB00090E0FC013197E131F10508F04AC0882727
:102BC000EE58FF4F8F4F0C941742809180008F7703
:102BD00003C0809180008F7D80938000089584B52C
:102BE0008F7702C084B58F7D84BD08958091B00039
:102BF0008F7703C08091B0008F7D8093B0000895DF
:102C0000809190008F7707C0809190008F7D03C0E6
:102C100080919000877F8093900008958091A0001C
:102C20008F7707C08091A0008F7D03C08091A000A6
:102C3000877F8093A0000895809120018F7707C03F
:102C4000809120018F7D03C080912001877F809338
:102C5000200108951F93CF93DF93282F30E0F901CF
:102C6000EC52F74F8491F901E65EF14FD491F901EE
:102C7000E658F14FC491CC23C1F0162F81110E9468
:102C8000D815EC2FF0E0EE0FFF1FE05AF14FA591A1
:102C9000B4919FB7F894111104C08C91D095D823AA
:102CA00002C0EC91DE2BDC939FBFDF91CF911F918F
:102CB0000895CF93DF9390E0FC01E65EF14F2491FD
:102CC000FC01E658F14F8491882361F190E0880F70
:102CD000991FFC01E654F74FC591D491FC01E05ACD
:102CE000F14FA591B491611109C09FB7F894888103
:102CF000209582238883EC912E230BC0623061F4EF
:102D00009FB7F8948881322F309583238883EC9184
:102D10002E2B2C939FBF06C08FB7F894E8812E2BE3
:102D200028838FBFDF91CF910895CF92DF92EF92EA
:102D3000FF92CF93DF936B017C010E942512EB0180
:102D4000C114D104E104F10479F00E9425126C1B36
:102D50007D0B683E7340A0F381E0C81AD108E108FA
:102D6000F108C851DC4FECCFDF91CF91FF90EF908D
:102D7000DF90CF9008952FB7F8946091AD027091D5
:102D8000AE028091AF029091B0022FBF08950895D6
:102D9000CF93DF93BC0184E297E00E94E814EC013A
:102DA0000E9404238C0F9D1FDF91CF9108958F9275
:102DB0009F92AF92BF92CF92DF92EF92FF92CF930A
:102DC000DF93C82F8AEB94E09093B6048093B50408
:102DD000CC2369F1C53010F080E00CC140E060E028
:102DE00070E0CB010E94A2278823B1F320E1C29FAB
:102DF000C00111248B559D4FFC01E254FE4F2081F0
:102E00002F7751F73C96408151816281738144361E
:102E100051056105710500F33497C080D180E280CF
:102E2000F380C114D104E104F10421F4D5CFC12C05
:102E3000D12C760140E0C701B6010E94A227882369
:102E400059F28091C0029091C1028115924021F601
:102E5000A091C502AA2309F4BFCF6091C30270916B
:102E6000C4026115710509F4B7CF2091C202222373
:102E700009F4B2CFA093D9042093CB0480E030E0D2
:102E800041E050E0C82FFA01082E02C0EE0FFF1FEC
:102E90000A94E2F72E173F0739F08F5FC83091F799
:102EA00089E08093D40498CF8093D4042091CB02FE
:102EB0003091CC022115310519F040E050E008C0F6
:102EC0002091D9023091DA024091DB025091DC026C
:102ED0002093CC043093CD044093CE045093CF0480
:102EE00046015701860E971EA11CB11C8092DA0480
:102EF0009092DB04A092DC04B092DD04E091C60263
:102F0000F091C702F093E004E093DF04B0E00E9488
:102F1000853C860E971EA81EB91E8092E1049092F1
:102F2000E204A092E304B092E40485E0EE0FFF1FF8
:102F30008A95E1F7E150FE4FEF2FFF27E6958E0EC1
:102F40009F1EA11CB11C8092D5049092D604A09221
:102F5000D704B092D8042091C8023091C90221153B
:102F6000310521F0A90160E070E008C04091D50270
:102F70005091D6026091D7027091D802D701C60154
:102F800088199909AA09BB09840F951FA61FB71FA5
:102F900004C0B695A79597958795CA95D2F7809363
:102FA000D0049093D104A093D204B093D304853F6E
:102FB0002FE09207A105B10510F48CE018C0853F01
:102FC0009F4FA105B10510F480E111C08091E1028D
:102FD0009091E202A091E302B091E4028093E104B7
:102FE0009093E204A093E304B093E40480E280931E
:102FF000DE0481E0DF91CF91FF90EF90DF90CF90E2
:10300000BF90AF909F908F90089581E08093B70418
:10301000E1E0F1E08081886780839D9A8DB18863CB
:103020008DB9809A819A829A839A849A8B9A889A87
:10303000899A8C9A62E370E080E090E00E94951695
:103040008C9864E670E080E090E00E9495168C9A7F
:1030500064E670E080E090E00E94951660E070E029
:1030600080EB90E00C9428090F931F93CF93DF938C
:10307000EC01162F8091B704811102C00E9405183F
:103080008B988A9880910201877880930201A59895
:103090008EB1877C8EB9409102018D2F99279C01BA
:1030A0002370332755E0220F331F5A95E1F7242B65
:1030B000209302014EB19C012C703327220F331F45
:1030C000220F331F242B2EB944B39C0120713327C8
:1030D000220F331F242B24BB4EB19C0120723327B7
:1030E0003595279535952795242B2EB920910201EA
:1030F000807C9927F3E095958795FA95E1F7822BE7
:10310000809302018998899A80910201877880933F
:103110000201A5988EB1877C8EB920910201CE0163
:1031200083709927A5E0880F991FAA95E1F7822B54
:10313000809302012EB1CE018C709927880F991FC0
:10314000880F991F822B8EB924B3CE0180719927E5
:10315000880F991F822B84BB2EB1CE0180729927D4
:103160009595879595958795822B8EB980910201CB
:10317000C07CDD2743E0D595C7954A95E1F7C82B7C
:10318000C09302018998899A8A9A8091010187786F
:10319000809301019D988DB1877C8DB961E070E0CD
:1031A00080E090E00E949516889A88988898889880
:1031B000609100018CB1A2B34CB100910001889ADA
:1031C000889A889888988898E0910001FCB132B379
:1031D0002CB1C0910001889A115017FFE5CF889A51
:1031E0008B9A909101019867909301019D9A9DB1EE
:1031F00098639DB9487050E0440F551F440F551F08
:10320000087198E0099F80011124402B512BA07276
:10321000B0E0B595A7954A2B5B2B807390E0959510
:10322000879595958795482B592B607670E0B5E08A
:1032300075956795BA95E1F7462B572B542F442780
:103240002870220F220F8C2F887198E0899FE0014F
:1032500011249C2F922B3072232F30E03595279527
:10326000292B9F2F907396959695922B2E2F207633
:10327000229526952770292BCA01822BDF91CF91A9
:103280001F910F910895FF920F931F93CF93DF9398
:10329000EC0160E00E9434188C0161E0CE010E94D4
:1032A0003418F82E62E0CE010E94341820E030E09D
:1032B000302F22271127002740E050E05F2D60E0EB
:1032C00070E0042B152B262B372B492F50E060E0A4
:1032D00070E0CB01BA01602B712B822B932BDF9115
:1032E000CF911F910F91FF9008950F931F93CF934C
:1032F000DF938C0160E00E943418EC0161E0C801AA
:103300000E943418AC01CE01A0E0B0E0DC019927A6
:10331000882760E070E08C019D01042B152B262B83
:10332000372BC901B801DF91CF911F910F910895FB
:10333000CF93DF93FC0124813581232B61F0C08181
:10334000D1816CE270E0CE010E94D83E009719F066
:103350008C1B9D0B02C08FEF9FEFDF91CF910895E3
:103360000F931F93CF93DF938C01EB01FC018081BE
:103370009181009799F0428153812C813D814217C0
:10338000530750F0688179810E94E33E8C819D81D2
:10339000F8019583848313C00E94613D88819981DF
:1033A000F801918380838A819B81938382838C81BE
:1033B0009D8195838483198218821B821A821D82C3
:1033C0001C82DF91CF911F910F910895CF93DF93CE
:1033D000FC01248135812230310578F0FB01DC01CC
:1033E000CD91DC9160817181CE0101960E94EA3E0F
:1033F000009719F08C1B9D0B02C08FEF9FEFDF91A0
:10340000CF9108952F923F924F925F926F927F9249
:103410008F929F92AF92BF92CF92DF92EF92FF92E4
:103420000F931F93CF93DF93CDB7DEB76B970FB694
:10343000F894DEBF0FBECDBF9B8F8A8F5B011A0150
:10344000D22E1F830E833701C982DC0158962D913D
:103450003C9159972115310509F0E6C018968D91D8
:103460009C911997681779070CF0CDC11A968D9128
:103470009C911B97481759070CF0C5C18C2C912CB7
:10348000FB0126E0C29EE00DF11D1124FB87EA87B7
:103490001E161F060CF0B7C1A40183E0440F551F90
:1034A0008A95E1F75D874C87CA01820D931D181636
:1034B00019060CF0A8C157968C91811104C05FEADF
:1034C0005D1508F4D394AA8DBB8DED91FC911197F5
:1034D0000680F781E02DCD011995B5E0DB9EC00196
:1034E0001124F5013596FF87EE87BB82AA8225015C
:1034F0009C012A193B09398B288BA101485F5F4F3A
:103500005B8B4A8BE889F989E40DF51DE65EF64F81
:103510005491588761013D822C82888580FF13C0B9
:10352000AA8DBB8DED91FC91B981B13031F400844D
:10353000F185E02D2E813F8116C00284F385E02DB8
:10354000EE80FF801AC0EE81FF81E615F705F1F0ED
:10355000AA8DBB8DED91FC91B981B13051F40084FD
:10356000F185E02D9301A601B2018A8D9B8D1995FD
:103570000DC00284F385E02D7301840194014C8118
:103580005D816A817B818A8D9B8D1995E885E695A1
:10359000E887FFEFCF1ADF0A2C813D81280D391D06
:1035A0003D832C834A895B89C416D50609F0B5CFC3
:1035B0005FEF451A550A8A819B81880D991D9B836F
:1035C0008A83AE85BF854A165B0609F09BCFEE81E4
:1035D000FF81E615F70509F4F4C0EA8DFB8DA081A3
:1035E000B181F981F13079F4B5016B5F7F4F1C96A1
:1035F000ED91FC911D97830128E030E0A1018A8DB7
:103600009B8D1995DEC06A857B85681979091A96A4
:10361000ED91FC911B9773010C851D859401A1010F
:103620008A8D9B8D1995CDC0F9013496E491DE1AEF
:10363000F901329685919491B7E0DB9E800D911D42
:103640001124F901259134913B8B2A8BFC012591A2
:1036500034912901FC013296C490319634913E8711
:10366000329614913196D4904981423058F0612EAF
:10367000012E000C77088D2D0D2C000C990B9987CD
:10368000888704C019861886612C712CAA8DBB8D81
:10369000ED91FC9111970680F781E02DCD011995F0
:1036A000B9818B2E912C689CC001699C900D789CEF
:1036B000900D1124FC01EA0DFB1DFD87EC871A8299
:1036C000712C612CE12F110FFF0B95012E0F3F1F65
:1036D0003B872A87AC0CB11CA5014E0F5F1F5F8B87
:1036E0004E8BC1018D0D911DD7FC9A95998F888FB6
:1036F0009E85691608F065C0862D90E0488559853D
:10370000480F591F489D9001499D300D589D300D1F
:103710001124D101A20FB31FB98BA88BEC85FD85B5
:10372000FD83EC83AA84BB84DA80FA85DF1A288DB6
:10373000398D280F391F3D8B2C8B8D2D8A0D4E898D
:103740005F89A416B506C1F1877041F4C2010196E4
:10375000EA89FB89E40DF51D74902C0177FE21C0E8
:10376000AA8DBB8DED91FC91B981B13061F40084DB
:10377000F185E02D2E813F814C895D89B5018A8DCF
:103780009B8D19950EC00284F385E02DEE80FF809D
:1037900084019401488959896C817D818A8D9B8D32
:1037A0001995770CEFEFAE1ABE0A2C813D81280DDA
:1037B000391D3D832C83C1CF3A813C0D3A836394FC
:1037C00097CFAA8DBB8DED91FC9111970288F3895B
:1037D000E02DCD016B960FB6F894DEBF0FBECDBFC6
:1037E000DF91CF911F910F91FF90EF90DF90CF90DD
:1037F000BF90AF909F908F907F906F905F904F9011
:103800003F902F9019946B960FB6F894DEBF0FBEC1
:10381000CDBFDF91CF911F910F91FF90EF90DF907F
:10382000CF90BF90AF909F908F907F906F905F9060
:103830004F903F902F9008953F924F925F926F92DA
:103840007F928F929F92AF92BF92CF92DF92EF9230
:10385000FF920F931F93CF93DF93CDB7DEB72C97D3
:103860000FB6F894DEBF0FBECDBF5C01DC015B96E6
:103870008D909C905C971696CD90DD90ED90FC908D
:103880001997C114D104E104F10439F0BFEFCB1A48
:10389000DB0AEB0AFB0A312C07C0F401C080D1809F
:1038A000E280F38033243394F40181859285A385EB
:1038B000B4859C01AD012F5F3F4F4F4F5F4F29876C
:1038C0003A874B875C87260137011D821E821F8243
:1038D0001886F40181859285A385B4852D813E816A
:1038E0004F815885281739074A075B0708F063C0DE
:1038F00089859A85AB85BC858C159D05AE05BF0570
:1039000050F482E0C82ED12CE12CF12C92E0492E0B
:10391000512C612C712C9E012F5F3F4FB701A601E6
:10392000C4010E94EA28882309F445C089819A814C
:10393000AB81BC81892B8A2B8B2B41F0260137016F
:103940009FEF491A590A690A790A05C0C414D504B7
:10395000E604F70491F02D813E814F8158852F5F59
:103960003F4F4F4F5F4F2D833E834F8358873FEF2D
:10397000C31AD30AE30AF30AACCF0FEF1FEF2FEFFE
:103980003FE0B301A201C4010E944928882399F0B5
:10399000D50116964D915D916D917C9119974115C8
:1039A00051056105710549F093018201C4010E942E
:1039B0004928811102C080E02AC0D50116964D9297
:1039C0005D926D927C921997332051F0D301C20120
:1039D0000196A11DB11DF40180839183A283B3835D
:1039E000F5018789908DA18DB28D892B8A2B8B2B28
:1039F00069F4D50157964D925D926D927C925A97DB
:103A000014968C911497806814968C9381E02C9670
:103A10000FB6F894DEBF0FBECDBFDF91CF911F91DF
:103A20000F91FF90EF90DF90CF90BF90AF909F905D
:103A30008F907F906F905F904F903F900895AF92DE
:103A4000BF92CF92DF92EF92FF920F931F93CF938B
:103A5000DF937C015B01EA0169012417350720F43B
:103A60008D2FE901C42ED82E63E772E0C7010E94B2
:103A7000A315D50114960D911C9115970C171D07D0
:103A8000C8F1C016D10608F48601D501ED91FC916C
:103A90001197E00FF11FD08010826D917C916C0F17
:103AA0007D1F6115710561F0FB0101900020E9F7B0
:103AB0003197AF01461B570BC7010E945E1513C01B
:103AC000F70180819181009711F00E94613DD7013B
:103AD00011961C921E9215961C921E921497139684
:103AE0001C921E921297F50180819181FC01E00FDA
:103AF000F11FD082C701DF91CF911F910F91FF90ED
:103B0000EF90DF90CF90BF90AF9008954F925F926B
:103B10006F927F92AF92BF92CF92DF92EF92FF921D
:103B20000F931F93CF93DF9300D01F921F92CDB7B7
:103B3000DEB78C016D83DC0115968C911597813071
:103B400009F054C014968C9181FF50C057C0258550
:103B500030E0275F3F4F2A013B01B1E04B1A51088B
:103B600061087108022E04C07694679457944794B4
:103B70000A94D2F7D701C6010197A109B10904C07F
:103B8000B695A795979587952A95D2F784159505AB
:103B9000A605B70508F076C0F8014789508D618DFC
:103BA000728D46835783608771872C013D015801D0
:103BB000F6E0AF0EB11C411451046104710409F424
:103BC0006BC0D80116964D915D916D917C911997BE
:103BD00095015B968D919C915C970E94EA28B1E0DB
:103BE0004B1A5108610871088111E5CF81E090E01E
:103BF000F8019383828380E090E05BC182FF0EC076
:103C0000F8014285538564857585C388D488E58825
:103C1000F6884C155D056E057F05E9F4D8011A9606
:103C20004D915D916D917C911D975B96ED91FC910D
:103C30005C97948191506A017B0189E0F694E79446
:103C4000D794C7948A95D1F79C217A01B1E0FB22E1
:103C5000911173C027C0D801038CF48DE02DC114DD
:103C6000D104E104F10409F072CF16961D921D9261
:103C70001D921C9219971A961D921D921D921C92CC
:103C80001D9714C0452B462B472B09F485CF84196B
:103C90009509A609B70989CFF801C286D386E486BB
:103CA000F586BCCFE114F10409F047C0D80116969F
:103CB0004D915D916D917C9119974115510561056B
:103CC000710559F457968D919D910D90BC91A02D41
:103CD0000097A105B10549F522C09E012F5F3F4F16
:103CE000CF010E94EA28882309F485CF89819A812F
:103CF000AB81BC81F801238D348DF90127892031F6
:103D000029F448EF5FEF60E070E004C048EF5FEF38
:103D10006FEF7FE084179507A607B70730F0C8015B
:103D20000E941C1C811106C061CFF8018683978315
:103D3000A087B187E12CF12C90E0D8015B96ED9142
:103D4000FC915C9716964D905D906D907C901997C4
:103D5000B2E04B1A510861087108058404C0440C94
:103D6000551C661C771C0A94D2F7468557856089D6
:103D70007189440E551E661E771E490E511C611C2A
:103D8000711CE114F10409F5F8014285538564853D
:103D9000758583899489A589B689481759076A0763
:103DA0007B0798F00E946727882309F41FCF409271
:103DB000000250920102609202027092030280910E
:103DC000F40781608093F40708C041E0C301B201A9
:103DD0000E94A227882309F409CFF701EB54FD4F75
:103DE0008D818083F80182859385A485B5850196B0
:103DF000A11DB11D82879387A487B5874389548904
:103E000065897689481759076A077B0738F4838BD9
:103E1000948BA58BB68B848180688483D80114969B
:103E20008C9183FD03C081E090E043C0F80195814F
:103E3000992309F4DBCE87FF37C0668577858089B3
:103E4000918941E00E94A227882309F4CFCED801AE
:103E50005296EC91B0E2EB9FF0011124EB54FD4F30
:103E6000309709F4C3CED80115968C9115978230FE
:103E700050F453964D915D916D917C915697448F7E
:103E8000558F668F778FD80157964D915D916D91C3
:103E90007C915A97538F428F758B648B14968C91BB
:103EA00014978F7714968C930E9467278111BBCF4C
:103EB0009DCE0F900F900F900F900F90DF91CF91AC
:103EC0001F910F91FF90EF90DF90CF90BF90AF9038
:103ED0007F906F905F904F900895FC01848D958D39
:103EE000292F22952F7030E021703327A901462712
:103EF000BA0171A360A380FF0CC0672B19F480E2A4
:103F000090E002C081E290E040E050E060E00C947C
:103F1000D107868D978D833957E79507E1F040F4F7
:103F2000843541E0940779F080329445C1F413C0A0
:103F3000863223E9920779F0893045EB940759F0EE
:103F40008532924961F4660F771F660F771F6361B0
:103F500087E090E006C0626081E094E002C081E604
:103F600090E00C9428090F931F93CF93DF93EC01FB
:103F70008B0110161106B4F4FE01859194912496DC
:103F8000FE013297659174918F3F2FEF920729F4CC
:103F900080E090E00E94951602C00E94280904501B
:103FA0001109E7CFDF91CF911F910F910895DF9213
:103FB000EF92FF920F931F93CF93DF93CDB7DEB7AE
:103FC00068970FB6F894DEBF0FBECDBF7C018B01A2
:103FD0001016110654F5F70184913196D490F2E051
:103FE000EF0EF11C8F3741F46D2D70E080E090E012
:103FF0000E949516D12C13C02E2DDE011196F701CB
:10400000AD019E2F921B9D1520F494919D933196A6
:10401000F8CFED0CF11C6D2D90E00E94D107ED2D35
:10402000F0E032960E1B1F0BD3CF68960FB6F894B4
:10403000DEBF0FBECDBFDF91CF911F910F91FF90DB
:10404000EF90DF9008958F929F92AF92BF92CF92A0
:10405000DF92EF92FF920F931F93CF93DF9300D0E5
:104060001F92CDB7DEB77C014B015A016901FC01FB
:10407000868D978D8732F3E99F0799F4F70185893B
:10408000823031F4F0E2AF0EB11C005E1F4F1EC053
:104090008330E1F420E2820E911C80E2C80ED11C34
:1040A00015C08632954191F4F701858980FF0EC0D5
:1040B000C801841B950B19F40F5F1F4F07C06217CF
:1040C000730721F46B01C80ED91E8A01F701848D94
:1040D00080FF1AC084A599828A82DB82CC82AE01DD
:1040E0004F5F5F4F64E090E00E94D107F70180A925
:1040F000B982AA821B830C83AE014F5F5F4F64E0DD
:1041000090E00E94D1073CC0B401F70186A197A1BD
:104110000E942809B501F70180A591A50E942809F0
:10412000C814D90419F40A151B0551F1F701848D3F
:1041300085FF0EC0858980FF06C0102F0027A02AAA
:10414000B12A850105C0DC2CCC248C289D28640173
:10415000B401F70184A595A50E942809B501F701CE
:1041600080A991A90E942809B601F70186A597A503
:104170000E942809B801F70182A993A90E94280981
:104180000F900F900F900F90DF91CF911F910F9193
:10419000FF90EF90DF90CF90BF90AF909F908F9067
:1041A0000895AF92BF92CF92DF92EF92FF920F935A
:1041B0001F93CF93DF93EC018091B804882349F0DB
:1041C000C7018F719927880F991FE1ECEE22E82A29
:1041D000F92A37FF05C0620F731F31952195310908
:1041E000260F371F77FF02C060E070E0E885F98591
:1041F0002E173F070CF4F9015F01A61AB70A17FF43
:1042000005C0400F511F119501951109CA01800F7A
:10421000911F57FF02C040E050E00A851B858017C0
:1042200091070CF48C016801C41AD50A01501109D8
:104230009F0121503109CE010E9423208B988A983A
:104240008AA59BA520910201277820930201A598B9
:104250002EB1277C2EB960910201292F3327A901A5
:104260004370552705E0440F551F0A95E1F7462B8B
:10427000409302016EB1A9014C705527440F551FA0
:10428000440F551F462B4EB964B3A9014071552701
:10429000440F551F462B44BB6EB1A90140725527F0
:1042A0005595479555954795462B4EB94091020136
:1042B000207C3327A3E035952795AA95E1F7242B99
:1042C000209302018998899A2091020127782093EE
:1042D0000201A5982EB1277C2EB9409102019C01C4
:1042E00023703327B5E0220F331FBA95E1F7242B53
:1042F000209302014EB19C012C703327220F331FF3
:10430000220F331F242B2EB944B39C012071332775
:10431000220F331F242B24BB4EB19C012072332764
:104320003595279535952795242B2EB92091020197
:10433000807C992763E0959587956A95E1F7822BB4
:10434000809302018998899A8A9AAC14BD042CF44E
:104350009A2D8B2D5601C92ED82E8F2D99279C0171
:10436000237033272295220F207EAC014C705527F5
:10437000342F330F330FAC0140715527440FBC016C
:104380007695679576956795562F587063E0969564
:1043900087956A95E1F78871B70163707727962F43
:1043A0009295990F907EB7016C707727660F660F14
:1043B000F701E071FF277E2F770FD701B695A795FC
:1043C000B695A795A870F701B3E0F695E795BA956D
:1043D000E1F71E2F18711C141D040CF043C0F501E9
:1043E000B0910201B778B0930201A598BEB1B77C35
:1043F000BEB9B0910201B22BB0930201BEB1B32B92
:10440000BEB9B4B3B42BB4BBBEB1B52BBEB9B09179
:104410000201B82BB09302018998899AB0910201E8
:10442000B778B0930201A598BEB1B77CBEB9B09180
:104430000201B92BB0930201BEB1B62BBEB9B4B321
:10444000B72BB4BBBEB1BA2BBEB9B0910201B12B30
:10445000B09302018998899A319711F6E1E0CE1A5A
:10446000D108B9CF8B9A8C8D80FF08C08E8D9F8D1F
:104470008632954191F48D8980FF0FC00A851B8596
:1044800001501109288539852150310940E050E05B
:1044900060E070E0CE010E942320DF91CF911F9158
:1044A0000F91FF90EF90DF90CF90BF90AF90089565
:1044B0002F923F924F925F926F927F928F929F9234
:1044C000AF92BF92CF92DF92EF92FF920F931F9322
:1044D000CF93DF93CDB7DEB728970FB6F894DEBF42
:1044E0000FBECDBF5C012B016A01AB0144505109E5
:1044F000860129E030E0BC018AE597E00E94861041
:10450000E12CF12C66246394712C44E050E0588730
:104510004F8388EF9FEF9C838B832DEF822E99240E
:104520009A949FEFE91AF90A42E0640E711C860C16
:10453000971C2F803884220C331C5FEF251A350A14
:10454000B7016A0D7B1D86019101C2014F8158851B
:10455000841B950B9A838983AC018AE597E00E94BE
:104560008610C2018E199F099E838D839301AC0131
:104570006F8178856A0D7B1D8AE597E00E94861021
:10458000B5016E197F09910149815A818AE597E049
:104590000E94861093014D815E81B5018F819885BF
:1045A000681B790B8AE597E00E9486104F81588539
:1045B000E416F50684F497FCB4CF4F81588541503A
:1045C000510958874F838B819C8102969C838B83F2
:1045D000880E991EA6CF28960FB6F894DEBF0FBEA0
:1045E000CDBFDF91CF911F910F91FF90EF90DF90A2
:1045F000CF90BF90AF909F908F907F906F905F9083
:104600004F903F902F900895CF93DF936DE084E219
:1046100097E00E944A11EC016AE084E297E00E9470
:104620004A118C0F9D1FDF91CF910895CF92DF9299
:10463000EF92FF920F931F93CF93DF936B01770F4E
:10464000EE08FF08F7FE1FC0EC01E881F981019038
:10465000F081E02D6DE219958C0144275527BA01B0
:104660004C195D096E097F092AE0CE010E94FD14F4
:10467000800F911FDF91CF911F910F91FF90EF90CD
:10468000DF90CF9008952AE0B701A601DF91CF9186
:104690001F910F91FF90EF90DF90CF900C94FD143D
:1046A0008F929F92AF92BF92CF92DF92EF92FF9242
:1046B0000F931F93CF93DF936B017C01142F9B010A
:1046C000AC010E94F041882319F067E972E027C02D
:1046D00046015701E894B7F82FEF3FEF4FE75FE748
:1046E000C501B4010E94F04181110DC02FEF3FEFD1
:1046F0004FE75FE7C501B4010E94A03F18161CF404
:104700006BE972E00CC02FEF3FEF4FE75FE4C701AA
:10471000B6010E946A41181694F46FE972E08AE5C6
:1047200097E0DF91CF911F910F91FF90EF90DF9075
:10473000CF90BF90AF909F908F900C94E8142FEF84
:104740003FEF4FE75FECC701B6010E94A03F87FD36
:10475000E4CF20E030E0A901C701B6010E94A03FEC
:1047600087FF0BC06DE28AE597E00E944A12EC01D8
:10477000F7FAF094F7F8F09402C0C0E0D0E000E05F
:1047800060E070E080E09FE3101741F020E030E04F
:1047900040E251E40E94AA3F0F5FF6CFA7019601C5
:1047A0000E94053F6B017C010E9423404B015C018C
:1047B0002AE0AB01BC018AE597E00E94FD14C80F16
:1047C000D91F1123C1F1C501B4010E9452409B01C0
:1047D000AC01C701B6010E94043F6B017C016BE68E
:1047E00072E08AE597E00E94E814C80FD91F20E024
:1047F00030E040E251E4C701B6010E9477414B012D
:104800005C010E941C406B017C018AE597E00E94DC
:104810001623C80FD91FB601DD0C880B990B0E9417
:1048200054409B01AC01C501B4010E94043F6B01DF
:104830007C011150E1F6CE01DF91CF911F910F91D4
:10484000FF90EF90DF90CF90BF90AF909F908F90B0
:104850000895EF92FF920F931F93FA0140815181C7
:1048600044505109FB0160817181645071097C01E0
:1048700009E010E029E030E08AE597E00E94D120CD
:104880001F910F91FF90EF900895CF92DF92EF92DA
:10489000FF920F931F93CF93DF93EC01FB012081D5
:1048A000318189819A81A9014C5F5F4F481759076F
:1048B0000CF440C04850510984179507DCF142813F
:1048C00053818B819C81FA013496E817F90794F1A2
:1048D00038978E179F0774F18D8581112BC08881C1
:1048E000882341F16B0149505109B901695071099F
:1048F0008FE1E82EF12C02E110E022E130E08AE5C0
:1049000097E00E94D120F6018681978101969783D6
:10491000868318821C861B866B817C814FE150E068
:1049200089819A810E945822F6018481958101979C
:1049300095838483DF91CF911F910F91FF90EF902A
:10494000DF90CF9008952F923F924F925F926F9297
:104950007F928F929F92AF92BF92CF92DF92EF920F
:10496000FF920F931F93CF93DF93CDB7DEB76A9774
:104970000FB6F894DEBF0FBECDBFDA011496ED91ED
:10498000FC91159732970CF045C11E8B0D8B3C8B1B
:104990002B8B1A018B017C010E94BB16ED89FE89CD
:1049A00080809180092C000CAA08BB08DC01CB0197
:1049B00088199909AA09BB09883E9340A105B10548
:1049C00008F428C1D10114962D913C9115978EE0E1
:1049D000829FF001839FF00D11242B893C89E20F07
:1049E000F31FDE01119601900D928A95E1F7D10136
:1049F0000D90BC91A02DB88BAF87F1010280F3819F
:104A0000E02DFA8BE98BB7016A1B7B0B072E000C9C
:104A1000880B990B0E9454402B013C0169897A89CB
:104A2000601B710B072E000C880B990B0E945440E1
:104A30004B015C01E12CF12C00E510E020E530E0B9
:104A400040EA50E064E071E08AE597E00E94D120FE
:104A50000E94BB160E94BB166F8B788F898F9A8F2E
:104A600004E011E0109367070093660780EA90E086
:104A700090936907809368078FE190E090936D07AA
:104A800080936C0790936B0780936A0782E0809312
:104A90006E0742E0C301B2010E94502310936707E2
:104AA0000093660788EC90E090936907809368070D
:104AB00042E0C501B4010E945023A3019201C50147
:104AC000B4010E94AA3F0E94713F6B017C011093C8
:104AD00067070093660780EF90E0909369078093E3
:104AE000680742E0C701B6010E94502320E030E091
:104AF000A901C501B4010E946A411816CCF420E056
:104B000030E0A901C301B2010E94A03F87FF10C09D
:104B100023EC35EF48E450E4C701B6010E94053F9D
:104B20006B017C0120E030E0A901C501B4010EC099
:104B300020E030E0A901C501B4010E94A03F87FF39
:104B400013C020E030E0A901C301B2010E94A03FE0
:104B500087FF0AC023EC35EF48E450E4C701B601F3
:104B60000E94043F6B017C01C701B6010E94A53F72
:104B70004B015C01C701B6010E94E4412B013C01DD
:104B8000D10114960D911C911597FF24F394F9828D
:104B9000EF85F889FB83EA8329893A893D832C8351
:104BA00020E030E040EA50E4C501B4010E947741C2
:104BB0000E941C407F836E8320E030E040EA50EC8E
:104BC000C301B2010E9477410E941C407987688727
:104BD0008F89988D9B878A87FE868EE0809FD00183
:104BE000819FB00D1124EB89FC89AE0FBF1FFE0120
:104BF000319601900D928A95E1F70F5F1F4FD10119
:104C000015961C930E9314970E94BB16ED89FE898E
:104C1000718360836A960FB6F894DEBF0FBECDBF76
:104C2000DF91CF911F910F91FF90EF90DF90CF9088
:104C3000BF90AF909F908F907F906F905F904F90BC
:104C40003F902F90089561E0FC0184810C942A1616
:104C5000F89498E02F9887FF02C02D9A01C02D98F4
:104C6000880F2F9A9150B1F700000000000000005B
:104C70002F9878940895F8942D9A98E080E02F9AD0
:104C800000000000880F1E9981602F989150B9F79D
:104C9000789408950F931F93CF93DF93EB010E94B5
:104CA000BB168B010E943B268F3F49F00E94BB162A
:104CB000601B710B6C177D07A8F380E001C081E0D9
:104CC000DF91CF911F910F910895CF93DF93EC0166
:104CD0008E81882389F08F8198859C012F5F3F4FBB
:104CE00038872F838230924018F40E943B26F3CFFE
:104CF000CE010E9423261E82DF91CF9108958F92CC
:104D00009F92AF92BF92FF920F931F93CF93DF9327
:104D1000EC01F62E49015A010E94652660E08C8163
:104D20000E942A166CE271E0CE010E944A268F2D65
:104D300080640E94282608E110E0D501C401002EFD
:104D400004C0B695A795979587950A94D2F70E94C7
:104D5000282608501109083F8FEF180771F7FF2028
:104D600029F088E0F81204C087E803C085E901C093
:104D70008FEF0E94282610E00E943B268A8787FF3B
:104D800004C01F3F11F01F5FF7CFDF91CF911F913C
:104D90000F91FF90BF90AF909F908F900895CF920A
:104DA000DF92EF92FF920F931F93CF93DF93EC016B
:104DB0007901411551056105710511F482E165C064
:104DC0008B85833039F0E9E0440F551F661F771F4C
:104DD000EA95D1F79A01AB0168E1CE010E947F26E6
:104DE000882311F084E051C08C8597013E5F6901F2
:104DF000882321F1F70100E010E0819190E0812704
:104E00009C0144E0359527954A95E1F78227932741
:104E1000102F0027082719279C01322F22273295AF
:104E2000307F0227132775E0880F991F7A95E1F7E5
:104E300008271927CE16DF0601F702C00FEF1FEF74
:104E40008EEF0E942826F70181917F010E9428267B
:104E5000CE14DF04C1F7812F0E942826802F0E94E4
:104E600028260E943B268A878F71853031F081E1A8
:104E70008D83CE010E94232609C068E572E0CE0131
:104E80000E944A26811107C085E18D83CE010E94D0
:104E9000232680E013C020E030E0A9016DE0CE01C0
:104EA0000E947F26811104C00E943B26882311F0B6
:104EB00084E1EBCFCE010E94232681E0DF91CF91E8
:104EC0001F910F91FF90EF90DF90CF900895809108
:104ED000F4078823A9F140910002509101026091EA
:104EE00002027091030225EB32E08091B5049091AB
:104EF000B6040E94CF26811102C080E0089540913F
:104F0000F5075091F6076091F7077091F807411582
:104F100051056105710591F025EB32E08091B504F2
:104F20009091B6040E94CF26882339F31092F5079A
:104F30001092F6071092F7071092F8071092F407F4
:104F400081E008959F92AF92BF92CF92DF92EF924D
:104F5000FF920F931F93CF93DF936B017C01942EED
:104F60008091000290910102A0910202B09103028F
:104F70008C159D05AE05BF0509F479C00E94672711
:104F8000882309F47AC0C091B504D091B6048E810B
:104F9000882369F088819981AA81BB81C816D906C6
:104FA000EA06FB0621F48F819885892BB1F1C8822E
:104FB000D982EA82FB828B85A7019601833039F082
:104FC00099E0220F331F441F551F9A95D1F761E1D5
:104FD000CE010E947F26882319F083E08D833AC09A
:104FE0000E94BB168B010E943B268A878F3F49F4A3
:104FF0000E94BB16601B710B6D327140A0F38FE0F5
:1050000003C08E3F31F08DE08D83CE010E942326B8
:1050100021C018861F8281E08E8305EB12E085EBAC
:10502000A82E84E0B82E0E943B26F80181938F01C0
:10503000AE16BF06C1F78F8198859E5F98878F83D4
:105040002985222319F08115924048F0CE010E9453
:10505000652605C0CE010E94232680E00EC0C092C6
:105060000002D0920102E0920202F092030240910B
:10507000F40749294093F40781E0DF91CF911F9114
:105080000F91FF90EF90DF90CF90BF90AF909F90E7
:1050900008954F925F926F927F928F929F92AF92FC
:1050A000BF92CF92DF92EF92FF920F931F93CF9315
:1050B000DF93EC01423051056105710510F480E089
:1050C00078C089859A85AB85BC850196A11DB11DE7
:1050D00084179507A607B70790F3CB88DC88ED887F
:1050E000FE888F89803129F4BB27A72F962F852F23
:1050F00009C0DB01CA01E7E0B695A79597958795AA
:10510000EA95D1F7480159012A013B01C80ED91E81
:10511000EA1EFB1E8091000290910102A091020202
:10512000B0910302C816D906EA06FB0681F48F89FE
:105130008031A9F4B301A201552766277727440FD0
:10514000551FFA01EB54FD4F9182808219C040E057
:10515000C701B6010E94A2278111E9CFB0CFB301E8
:10516000A2014F77552766277727440F551F440F15
:10517000551FFA01EB54FD4F80829182A282B382C7
:105180008091F40781608093F4078A89823080F0EF
:105190008D819E81AF81B885C80ED91EEA1EFB1E87
:1051A000C092F507D092F607E092F707F092F80761
:1051B00081E0DF91CF911F910F91FF90EF90DF90F1
:1051C000CF90BF90AF909F908F907F906F905F90A7
:1051D0004F9008958F929F92AF92BF92CF92DF929D
:1051E000EF92FF920F931F93CF93DF93FC01818582
:1051F0009285A385B4850196A11DB11D84179507DD
:10520000A607B70710F480E05BC083889488A58860
:10521000B6888789803129F4BB27A72F962F852F41
:1052200009C0DB01CA01C7E0B695A7959795879598
:10523000CA95D1F7E9016A017B018F01BC01CD015B
:10524000680D791D8A1D9B1D8090000290900102BF
:10525000A0900202B0900302681579058A059B05AB
:1052600091F4F80187898031A1F4DD24EE24FF2434
:10527000C601880F991FFC01EB54FD4F808191817D
:10528000A0E0B0E018C040E00E94A2278111E9CF61
:10529000BACFE894C7F8DD24EE24FF24C601880FB6
:1052A000991F880F991FFC01EB54FD4F808191815C
:1052B000A281B381BF7088839983AA83BB8381E075
:1052C000DF91CF911F910F91FF90EF90DF90CF90E2
:1052D000BF90AF909F908F900895EF92FF920F93A1
:1052E0001F93DC011A960D911C911B9718962D9116
:1052F0003C911997ED91FC91048CF58DE02D7B018B
:1053000040E050E060E070E019951F910F91FF9030
:10531000EF9008950F931F93CF93DF938C01EB01D0
:1053200063EA72E084E297E00E94E814B80184E244
:1053300097E00E94162366EA72E084E297E00E94FA
:10534000E814BE0184E297E00E9416230E94042321
:1053500084E297E00E94D311892BD1F384E297E095
:105360000E949711863569F08E3491F784E297E0B8
:105370000E94D311892BD1F384E297E00E94971108
:1053800001C086E5DF91CF911F910F910895CF92D3
:10539000DF92EF92FF920F931F93CF93DF93FC0165
:1053A0002081222309F4FFC08B01EC010E94BB166F
:1053B00029853A852053384F6901330FEE08FF08DD
:1053C000C616D706E806F90618F48D858111EEC0D9
:1053D0002B853C856B817C8189819A8123303105C5
:1053E00084F018821C861B8640E050E00E94582200
:1053F000F8018081918101979183808380E090E022
:10540000D7C040E050E00E94582289819A8197FFDE
:105410000EC01A8219828D819E8191958195910984
:105420009E838D838B859C8501969C878B87898144
:105430009A81813E914084F080EE91E09A83898345
:105440008D819E819195819591099E838D838B8518
:105450009C8501969C878B878B819C8118161906E9
:1054600074F01C821B828F8198859195819591099A
:1054700098878F838B859C8501969C878B878B81F2
:105480009C818034914084F080E491E09C838B8304
:105490008F81988591958195910998878F838B85C8
:1054A0009C8501969C878B872B813C8129513109F2
:1054B00089819A8123303105B8F49C012E5C310931
:1054C0002B33310588F428E130E03C832B832F8196
:1054D000388531952195310938872F832B853C8577
:1054E0002F5F3F4F3C872B876B817C816931710532
:1054F00054F5835D9109049780F481ED90E09A83DF
:1055000089838D819E819195819591099E838D835B
:105510008B859C8501969C878B8789819A81855094
:1055200091400E9780F483E191E09A8389838D8185
:105530009E819195819591099E838D838B859C8514
:1055400001969C878B8789819A810E948A2983355D
:1055500041F48D819E819195819591099E838D83E2
:1055600009C0843561F48F81988591958195910961
:1055700098878F838B859C8501969C878B87298153
:105580003A818D819E81820F931F9A8389836B81DB
:105590007C812F813885620F731F7C836B834FE181
:1055A00050E00E94582281E090E002C01D8610CF9A
:1055B000DF91CF911F910F91FF90EF90DF90CF90EF
:1055C00008951F920F920FB60F9211242F933F93BD
:1055D0008F939F93AF93BF938091AD029091AE0252
:1055E000A091AF02B091B0023091F90723E0230FF0
:1055F0002D3720F40196A11DB11D05C026E8230F0B
:105600000296A11DB11D2093F9078093AD029093DE
:10561000AE02A093AF02B093B0028091B10290911C
:10562000B202A091B302B091B4020196A11DB11DC6
:105630008093B1029093B202A093B302B093B402EC
:10564000BF91AF919F918F913F912F910F900FBE7E
:105650000F901F901895CF93DF93CDB7DEB7C55C41
:10566000D1090FB6F894DEBF0FBECDBF789484B5D4
:10567000826084BD84B5816084BD85B5826085BD4E
:1056800085B5816085BD80916E00816080936E00DC
:1056900010928100809181008260809381008091CE
:1056A000810081608093810080918000816080937F
:1056B00080008091B10084608093B1008091B0003F
:1056C00081608093B000809191008260809391000E
:1056D0008091910081608093910080919000816021
:1056E000809390008091A10082608093A1008091BE
:1056F000A10081608093A1008091A00081608093CF
:10570000A00080912101826080932101809121017C
:10571000816080932101809120018160809320012C
:1057200080917A00846080937A0080917A00826010
:1057300080937A0080917A00816080937A008091D2
:105740007A00806880937A001092C100E091380757
:10575000F091390781E090E09C010090440702C07D
:10576000220F331F0A94E2F72083E0913407F0916F
:1057700035071082E0913607F09137072FEC208330
:1057800010924507E0913A07F0913B0740819C0158
:105790000090400702C0220F331F0A94E2F7242B27
:1057A0002083E0913A07F0913B0740819C010090F3
:1057B000410702C0220F331F0A94E2F7242B2083F3
:1057C000E0913A07F0913B0740819C01009042072D
:1057D00002C0220F331F0A94E2F7242B2083E091AA
:1057E0003A07F0913B0720810090430702C0880FE1
:1057F000991F0A94E2F780958223808362E085E313
:105800000E94591660E080E090E00E9434188830D1
:1058100024E5920709F4D7C0803264E5960709F4BD
:10582000D5C08938994809F4D4C060E087E690E093
:105830000E9434188734974409F4CEC081EA90E07E
:105840000E9475196130F1E67F0709F4C8C06F3F07
:105850007F4F19F406E215E1EEC08FEB90E00E9455
:105860004319673583E8780709F4BCC0613894E9C7
:10587000790709F4BAC06131E5E17E0709F4B8C0DF
:105880006032F5E17F0709F4B6C0663225E17207A0
:1058900009F3613885E1780709F4B0C061157441F6
:1058A00009F4AFC084ED90E00E9475196031734532
:1058B00009F4AAC087ED90E00E9475196133704821
:1058C00009F4A5C08FEE90E00E9443196732734936
:1058D00009F4A0C08EEF90E00E947519BB27A92F94
:1058E000982F872F8335904209F497C084E090E089
:1058F0000E9475199B01811124C0211570E837079A
:1059000001F580910A0290910B02A0910C0289830B
:105910009A83AB83AE014F5F5F4F63E089EB90E00A
:105920000E94D10760E080ED90E00E943418893930
:1059300029F08039C9F400E910E97DC009E910E0D7
:105940007AC0263285E1380709F484CF203F99E8F0
:10595000390709F465C02235E5E83E0709F463C05C
:1059600021313C4A09F462C083ED90E00E94751930
:10597000BB27A92F982F872F8336914909F459C047
:1059800083ED90E00E9475198B01872F7359723057
:1059900008F451C0883909F44EC0873709F44BC068
:1059A000863109F448C0033D110509F444C0033DA4
:1059B00063ED160709F43FC060E080E090E00E94CC
:1059C00034188C0138C008E014E535C000E214E555
:1059D00032C009E812E12FC007E413E82CC003E647
:1059E00019E129C007E513E826C001E814E923C03E
:1059F00001E115E120C000E215E11DC001E815E15B
:105A00001AC004E118E617C000E113E514C001E371
:105A100010E811C007E213E90EC003E510E20BC065
:105A200005E317E708C009E817E705C001E11CEA2C
:105A300002C003E611E96DE472E084E297E00E949F
:105A4000E814A80160E070E020E184E297E00E94A1
:105A5000FD140E940423033D73ED170711F401E8C0
:105A600014E90E940518109275071092740710939C
:105A7000790700937807073583E8180709F499C177
:105A800008F0A5C00335E0E21E0709F4F3C108F0F1
:105A900047C0013125E1120709F42CC1B0F40939DE
:105AA000110509F49EC138F40130110509F04DC209
:105AB00080E091E1B0C1043571E0170709F40FC12E
:105AC0000530154109F4A5C140C2063295E1190718
:105AD00009F428C180F40032154109F036C283E18F
